:020000040000FA
:04000000AAEF0AF069
:10112900020001C58AC5881200C586BEEC08F01206
:1011390000C582BEEC08F01200C580BEEC08F012B2
:1011490000C584BEEC08F0120099EC08F096EC0892
:10115900F0C9501200016E01C0C9FFBEEC08F012BF
:1011690000016E01C0A9FFA694A69EA69CA680A810
:101179005012009EA6C3EF08F0C5EF08F0BEEF08B5
:10118900F09E9612000F0EC16E1E0E936EF19E8197
:1011990050E009816E120094869488280EC66E313B
:1011A9000EC86EC79CC78E9E96A19612000A6E0045
:1011B9000E016E0950ACEC09F0010E016E0A50AC3B
:1011C900EC09F01200016E9EA8EDEF08F0EFEF08B0
:1011D900F0E8EF08F09E9801C0ADFF1200DCEC0BBF
:1011E900F021EC09F010EC09F0C7EC08F0D0EC089C
:1011F900F0C9EC09F05B6A12000A6EA1EC08F0D0A4
:101209000EAFEC08F00A50AFEC08F00950AFEC084B
:10121900F0A5EC08F01200948E949CAC9CAC8AACBE
:1012290098AC84AB8EAB9CAB88B896150EAF6E9E0E
:10123900989E9A9D989D9A1200C29AC288C296C297
:1012490094C292C280C19AC198C186C194C182C117
:1012590090C08EC094C082C090C08AC098C09612B7
:1012690000026EA1EC08F0D00EAFEC08F00250AF0E
:10127900EC08F09DEC08F0D10EAFEC08F0A9EC08F1
:10128900F0036EA5EC08F003501200C282C2B250FE
:10129900EF09F052EF09F04BEF09F0C450046E0367
:1012A9006AC350056E066A03500510016E045006A4
:1012B90010026E1200036E03C0A9FF02C0A8FFA6A8
:1012C9009EA69CA684F29E550EA76EAA0EA76EA690
:1012D90082F28EA1A873EF09F075EF09F06EEF099C
:1012E900F0A198120048504910D8A47EEF09F08067
:1012F900EF09F089EF09F0F30E036E046AC00E05D9
:101309006E74EC0AF090EF09F0F30E036E046AC4F0
:101319000E056E74EC0AF012009DEF09F002C0F69A
:10132900FF03C0F7FF0800F550E7EC08F0024A0395
:101339002A02C0F6FF03C0F7FF0800F5500009D8DC
:10134900A4A9EF09F0ABEF09F093EF09F01200023D
:101359006E01B0B2EF09F0B5EF09F08282B6EF097C
:10136900F0829202C083FF82848294958E82808269
:10137900928284829483BEC4EF09F0C6EF09F0BD5E
:10138900EF09F08290959E1200000E35EC09F00BE2
:101399006E0B508009096E000E01EC09F0020E3542
:1013A900EC09F00B6E0B50BF0B096E020E01EC0934
:1013B900F0930E096E070E01EC09F0000E35EC09E9
:1013C900F00B6E0B507F0B096E000E01EC09F01249
:1013D90000000E4F6E000E4E6EB10E036E2F0E04FE
:1013E9006E800E056E74EC0AF06F0E036E2F0E04FC
:1013F9006EC00E056E74EC0AF00C0E5C18D8A408C9
:10140900EF0AF00AEF0AF011EF0AF0000E016E017F
:0B1419000EACEC09F0010E5B6E12003F
:10142500766965775F6C6F672020202000000000DB
:1014350000636C6561725F6C6F672020200000009F
:1014450000007365745F74696D65202020200000BD
:10145500000000646F776E6C6F61645F6C6F67206E
:10146500202020204F4E00474E00473100473200D4
:1014750047330047340047350047520020430003F7
:10148500500410D8B449EF0AF04BEF0AF06FEF0A99
:10149500F0010E056E53EF0AF0D8900336043605B9
:1014A5002A04AE58EF0AF05AEF0AF04FEF0AF0039C
:1014B50050015C04500258D8A063EF0AF065EF0AAA
:1014C500F069EF0AF00350015E0450025AD8900407
:1014D500320332052E5AEF0AF001C001F002C002B4
:1014E500F01200000E016E0550ACEC09F091EF0A08
:1014F500F0010E016E03C0F6FF04C0F7FFF86A05A0
:101505000EF76403D00800F55005D0F6CFE9FFF7D4
:10151500CFEAFFEF50ACEC09F0034A042A03C0F60A
:10152500FF04C0F7FFF86A050EF76403D00800F55D
:101535005005D0F6CFE9FFF7CFEAFFEF500009D805
:10154500A4A7EF0AF0A9EF0AF07BEF0AF012002535
:101555000EF66E140EF76E000EF86E00EE60F010CB
:10156500EE5FF00900F5CFEEFFE550E150FAE12915
:101575000EF66E110EF76E000EF86E0900F5CF5DD2
:10158500F00900F5CF5EF00900F5CF5FF001EE0040
:10159500F0A00EEE6AE806FDE100EEBFF03D0EEEAE
:1015A5006AE806FDE100EE35F0280EEE6AE806FD74
:1015B500E1000EF86E000195EF0BF0016E0104D805
:1015C500A4E7EF0AF0E9EF0AF00CEF0BF06AEC0D77
:1015D500F05A6E5A28D8B4F2EF0AF0F4EF0AF00088
:1015E500EF0BF05F50D8B4FAEF0AF0FCEF0AF00009
:1015F500EF0BF05F6A5A5019EF0BF05A28D8A40682
:10160500EF0BF008EF0BF018EF0BF0010E5F6E1803
:10161500EF0BF00150D8A412EF0BF014EF0BF018FC
:10162500EF0BF06AEC0DF019EF0BF0FF0E12000056
:101635000E066E000E056E03500410D8B425EF0B90
:10164500F027EF0BF04FEF0BF0010E076E2FEF0BAE
:10165500F0D89003360436072A04AE34EF0BF03683
:10166500EF0BF02BEF0BF0D8900536063603500143
:101675005C04500258D8A042EF0BF044EF0BF04940
:10168500EF0BF00350015E0450025A0580D8900418
:10169500320332072E36EF0BF005C001F006C0020B
:1016A500F01200020E35EC09F0356E010E35EC092D
:1016B500F0366E000E35EC09F0376E35AC65EF0B84
:1016C500F067EF0BF073EF0BF035380F0B010B30B4
:1016D5000F0001F36F35500F0B300FF46F7DEF0BDB
:1016E500F035380F0B030B300F0001F36F35500F3A
:1016F5000B300FF46F3A0EF56F36380F0B0F0B30BA
:101705000FF66F36500F0B300FF76F3A0EF86F3735
:10171500380F0B0F0B300FF96F37500F0B300FFAD7
:101725006FFB6B1200F3EC08F0010EE0EC0AF05CC5
:101735006EB5EF0BF030EC10F097EF0BF03DEC12BF
:10174500F097EF0BF02AEC11F097EF0BF04FEC0F41
:10175500F097EF0BF0EDEC09F097EF0BF02CEC1593
:10176500F097EF0BF05B50336E346A3450000AD8B3
:10177500B4BFEF0BF097EF0BF03350000AD8B49DD0
:10178500EF0BF0010AD8B4A1EF0BF0030AD8B4A50A
:10179500EF0BF0010AD8B4B1EF0BF0070AD8B4A9E2
:1017A500EF0BF0010AD8B4ADEF0BF097EF0BF0009B
:1017B500EF00F0956A9450F80B946E8290C30E0377
:1017C5006ECD0EE82EFED7032EFCD70000000E01CD
:1017D5006E330EACEC09F01B0E036E9E0EE82EFE6A
:1017E500D7032EFCD700D0000E016E330EACEC09EA
:1017F500F0A60EE82EFED700D0000E016E330EAC1B
:10180500EC09F000D000D00000000E016E020EAC15
:10181500EC09F0A60EE82EFED700D0000E016E38BA
:101825000EACEC09F0A60EE82EFED700D0000E0196
:101835006E010EACEC09F0040E036E3E0EE82EFEB2
:10184500D7032EFCD7000E016E0C0EACEC09F0A6EA
:101855000EE82EFED700D01200066A02BE37EF0C46
:10186500F035EF0CF03DEF0CF0016C021ED8B00224
:101875002A010E066E04BE44EF0CF042EF0CF04850
:10188500EF0CF0036C041ED8B0042A03500410D8E2
:10189500B44FEF0CF051EF0CF075EF0CF0010E05A5
:1018A5006E59EF0CF0D89003360436052A04AE5E67
:1018B500EF0CF060EF0CF055EF0CF00350015C04F9
:1018C500500258D8A069EF0CF06BEF0CF06FEF0CDD
:1018D500F00350015E0450025AD8900432033205D9
:1018E5002E60EF0CF00650D8B47BEF0CF07DEF0CBA
:1018F500F081EF0CF0016C021ED8B0022A01C00184
:10190500F002C002F01200066A04BE8EEF0CF08CE5
:10191500EF0CF094EF0CF0036C041ED8B0042A0110
:101925000E066E02BE9BEF0CF099EF0CF0A1EF0CCA
:10193500F0016C021ED8B0022A010E061A000E082C
:101945006E000E076E03500410D8B4ACEF0CF0AE69
:10195500EF0CF0D6EF0CF0010E056EB6EF0CF0D8DB
:101965009003360436052A04AEBBEF0CF0BDEF0C30
:10197500F0B2EF0CF0D890073608360350015C043E
:10198500500258D8A0C9EF0CF0CBEF0CF0D0EF0CFB
:10199500F00350015E0450025A0780D890043203C8
:1019A50032052EBDEF0CF00650D8B4DCEF0CF0DE9E
:1019B500EF0CF0E2EF0CF0076C081ED8B0082A0710
:1019C500C001F008C002F012002A342B34316E3108
:1019D50050D8A4F0EF0CF0F2EF0CF0FCEF0CF00097
:1019E5000E286E000E296E000E2A6E000E2B6E69F3
:1019F500EF0DF028C02CF029C02DF02AC02EF02BB9
:101A0500C02FF0200E0CEF0DF0D8902F322E322D76
:101A1500322C32E82E07EF0DF02C50306E2A8EFF57
:101A25000E2816FF0E2916FF0E2A16000E2B1696E7
:101A35000E315E31BE23EF0DF021EF0DF039EF0DC4
:101A4500F03150800A970FD8B02BEF0DF02DEF0D28
:101A5500F02FEF0DF0F2EF0CF0D8902B322A32294F
:101A6500322832313E2FEF0DF051EF0DF01F0E31C0
:101A7500643FEF0DF041EF0DF049EF0DF0F2EF0C83
:101A8500F0D890283629362A362B3631063150D8EB
:101A9500A44FEF0DF051EF0DF043EF0DF03050D89E
:101AA500B457EF0DF059EF0DF061EF0DF02B1E2A35
:101AB5001E291E286C000E29222A222B2228C02826
:101AC500F029C029F02AC02AF02BC02BF012008182
:101AD5009A818C818E81B272EF0DF074EF0DF077E3
:101AE500EF0DF0010EEDEF0DF081B47CEF0DF07E02
:101AF500EF0DF081EF0DF0040EEDEF0DF081B686E0
:101B0500EF0DF088EF0DF08BEF0DF0070EEDEF0DFB
:101B1500F081B890EF0DF092EF0DF095EF0DF00A12
:101B25000EEDEF0DF0818A819C818E81B29DEF0DC6
:101B3500F09FEF0DF0A2EF0DF0020EEDEF0DF0812D
:101B4500B4A7EF0DF0A9EF0DF0ACEF0DF0050EED1C
:101B5500EF0DF081B6B1EF0DF0B3EF0DF0B6EF0D6F
:101B6500F0080EEDEF0DF081B8BBEF0DF0BDEF0DF8
:101B7500F0C0EF0DF00B0EEDEF0DF0818A818C8139
:101B85009E819E81B2C9EF0DF0CBEF0DF0CEEF0D2A
:101B9500F0030EEDEF0DF081B4D3EF0DF0D5EF0DA1
:101BA500F0D8EF0DF0060EEDEF0DF081B6DDEF0D7F
:101BB500F0DFEF0DF0E2EF0DF0090EEDEF0DF08126
:101BC500B8E7EF0DF0E9EF0DF0ECEF0DF00C0EEDD1
:101BD500EF0DF0FF0E1200F3C0DBF0F4C0DCF0F601
:101BE500C0DDF0F7C0DEF0F9C0DFF0FAC0E0F05874
:101BF50050030DF350A40FD96EDA6ADF500001E1EE
:101C05006F5850030DF350A50FD96EDA6ADF50E215
:101C15006F56C001F057C002F0000E046E0A0E03A5
:101C25006E1AEC0BF001500001E36F56C001F0573E
:101C3500C002F0000E046E0A0E036E42EC0AF001BB
:101C4500500001E46F640E50185110D8A42DEF0E0A
:101C5500F02FEF0EF053EF0EF0000E4F6E090E4E03
:101C65006E000E516E5A0E506E000E0B6E000E0A6F
:101C75006E0A500A0FB5EC08F0026E0A505FEC09C7
:101C8500F00A4A0B2A0BBE51EF0EF00B5009E15A30
:101C95000E0A5CD8A051EF0EF053EF0EF03BEF0E9D
:101CA500F0000E096E000E086E0850DB0FD96EDAD3
:101CB5006ADF50026E50505FEC09F0504A512A0815
:101CC5004A092A09BE70EF0EF0095009E10A0E080B
:101CD5005CD8A070EF0EF072EF0EF057EF0EF04EDD
:101CE5004A4F2A1200096E0950D8B47CEF0EF07ED7
:101CF500EF0EF0A0EF0EF004BE85EF0EF083EF0EB1
:101D0500F0A0EF0EF001C005F002C006F003C00719
:101D1500F004C008F0051E061E071E081E052A0051
:101D25000E06220722082205C00BF006C00CF0079C
:101D3500C00DF008C00EF0A8EF0EF001C00BF002C8
:101D4500C00CF003C00DF004C00EF00150021003EA
:101D5500100410D8A4B1EF0EF0B3EF0EF0BDEF0EE6
:101D6500F0000E016E000E026E000E036E000E04F2
:101D75006E4EEF0FF0960E0A6EC7EF0EF00A2AD8D8
:101D8500900E320D320C320B32000E0B14056E0024
:101D95000E0C14066E000E0D14076EFE0E0E1408C2
:101DA5006E0550061007100810D8A4DCEF0EF0DE03
:101DB500EF0EF0C1EF0EF0ECEF0EF00A2A010E0B5C
:101DC50026000E0C220D220E22D8900E320D320C5A
:101DD500320B32000E0B14056E000E0C14066E004D
:101DE5000E0D14076EFF0E0E14086E055006100733
:101DF500100810D8A401EF0FF003EF0FF0E0EF0E7D
:101E0500F00BEF0FF00A06D8900B360C360D360E98
:101E1500360DBE10EF0FF012EF0FF01AEF0FF002B4
:101E25000E0A6018EF0FF01AEF0FF005EF0FF00A2A
:101E3500B01FEF0FF021EF0FF022EF0FF00D9ED83E
:101E4500900A320AC005F0066A076A086A05C008E2
:101E5500F0076A066A056A05500B1206500C120750
:101E6500500D1208500E120950D8B43CEF0FF03E39
:101E7500EF0FF046EF0FF004BE45EF0FF043EF0F05
:101E8500F046EF0FF00E8E0BC001F00CC002F00D06
:101E9500C003F00EC004F01200910E036E2F0E0465
:101EA5006E800E056E74EC0AF0A10E036E2F0E0403
:101EB5006EC00E056E74EC0AF04A504B10D8A4663D
:101EC500EF0FF068EF0FF008EF10F0490E026E2FDC
:101ED5000E036E91EC09F0000E3F6E000E3E6EF99A
:101EE500EF0FF00A0E3E02F3CF06F0F4CF07F03FF6
:101EF50002F350072606C009F007C00AF090EF0F5D
:101F0500F03E50F60DF350BF0F0924D96EDA6A0979
:101F150050B5EC08F0DF6E094A0A2A0A0E3E02F3B4
:101F2500CF06F0F4CF07F03F02F35007260A0E065E
:101F350026000E07220650095C0A50800A086E0723
:101F450050800A0858D8A0AAEF0FF0ACEF0FF08325
:101F5500EF0FF04C504E5C4F50800A066E4D50808E
:101F65000A0658D8A0B9EF0FF0BBEF0FF0F7EF0F47
:101F7500F00001BF51E7EC08F00001C051E7EC08A3
:101F8500F03A0EE7EC08F00001C151E7EC08F0006B
:101F950001C251E7EC08F03A0EE7EC08F00001C386
:101FA50051E7EC08F00001C451E7EC08F0200EE71A
:101FB500EC08F00001C551E7EC08F00001C651E757
:101FC500EC08F0200EE7EC08F00001C751300FE7F0
:101FD500EC08F00001C851300FE7EC08F05A0E028A
:101FE5006E2F0E036E91EC09F03E4A3F2A4E503E8D
:101FF5005C3F50800A066E4F50800A0658D8A006EE
:10200500EF10F008EF10F074EF0FF04A50066E4B2A
:1020150050076E4A4A4B2A07BE1AEF10F0B80E0653
:102025005C0B0E0758D8A01AEF10F01CEF10F02F1C
:10203500EF10F0000E3F6E000E3E6E3EC04CF03FBE
:10204500C04DF0000E016E010EACEC09F0010E5B07
:102055006E000E4B6E000E4A6E1200EE0E036E2FD2
:102065000E046E800E056E74EC0AF0FA0E036E2FE8
:102075000E046E8A0E056E74EC0AF0F70E036E2FD1
:102085000E046E8E0E056E74EC0AF0000E496E009D
:102095000E486E54EC0BF077EC09F05C04D8A456AE
:1020A500EF10F058EF10F083EF10F0070E581859A5
:1020B50010D8A460EF10F062EF10F068EF10F00098
:1020C5000E596E070E586EB1EF10F0080E581859DC
:1020D50010D8A470EF10F072EF10F078EF10F00048
:1020E5000E596E000E586EB1EF10F0584A592AEE8F
:1020F500EC0DF0000E0001EA6F010EE96FB1EF1073
:10210500F0020E5C18D8A48AEF10F08CEF10F0B135
:10211500EF10F059BE9AEF10F0595007E1020E5832
:102125005CD8B098EF10F09AEF10F0A0EF10F00027
:102135000E596E010E586EB1EF10F0080E58185971
:1021450010D8A4A8EF10F0AAEF10F0ACEF10F072C1
:10215500EF10F05806D8A059067AEF10F058500342
:102165000DF350A40F326E32C003F0046ACA0E0597
:102175006E74EC0AF04AEC09F001C056F002C05743
:10218500F0AE0E136E470E146E250E156E410E162B
:102195006E56C001F057C002F0036A046A000E755E
:1021A500EC0EF001C00FF002C010F003C011F004F6
:1021B500C012F064EC13F00FC028F010C029F01124
:1021C500C02AF012C02BF0E7EC0CF028C056F0291D
:1021D500C057F0CE0E096E56C001F057C002F00090
:1021E5000E046E0A0E036E1AEC0BF00150300FDB75
:1021F500EC08F0CF0E096E56C001F057C002F00092
:102205000E046E0A0E036E42EC0AF00150300FDB2D
:10221500EC08F0030E5C18D8A413EF11F015EF11BC
:10222500F019EF11F0000E596E080E586E0B0E5C8A
:1022350018D8A420EF11F022EF11F029EF11F000CA
:102245000E016E010EACEC09F0010E5B6E12004E34
:10225500504F10D8A431EF11F033EF11F045EF11C5
:10226500F0800E036E2F0E046E800E056E74EC0A60
:10227500F05D0E036E2F0E046EC00E056E74EC0A33
:10228500F02CEF12F0800E096E230EDBEC08F0CE79
:102295000E036E2F0E046E820E056E74EC0AF0F3BB
:1022A5000E036E2F0E046E8B0E056E74EC0AF0E9AC
:1022B5000E036E2F0E046E8E0E056E74EC0AF05C26
:1022C50004D8A468EF11F06AEF11F083EF11F0FF65
:1022D5000E4E240B6EFF0E4F200C6E0B50405C41D2
:1022E50050800A0D6E0C50800A0D58D8B07DEF1144
:1022F500F07FEF11F09CEF11F0404A412A9CEF115D
:10230500F0020E5C18D8A48AEF11F08CEF11F09C46
:10231500EF11F041BE97EF11F0415008E14004D8AC
:10232500A097EF11F099EF11F09CEF11F04006D84E
:10233500A041060A0E4002F3CF0BF0F4CF0CF0419A
:1023450002F3500C260BC00EF00CC00FF0B8EF11C5
:10235500F04050F60DF350D10F0E24D96EDA6A0E07
:1023650050B5EC08F0DF6E0E4A0F2A0A0E4002F354
:10237500CF0BF0F4CF0CF04102F3500C260A0E0BF4
:1023850026000E0C220B500E5C0F50800A0D6E0CB1
:1023950050800A0D58D8A0D2EF11F0D4EF11F0AB50
:1023A500EF11F0C00E096E4050300FDBEC08F0C2A3
:1023B5000E096E0001D151DBEC08F0C30E096E0069
:1023C50001D251DBEC08F0C40E096E3A0EDBEC08C5
:1023D500F0C50E096E0001D351DBEC08F0C60E09FD
:1023E5006E0001D451DBEC08F0C70E096E3A0EDB26
:1023F500EC08F0C80E096E0001D551DBEC08F0C9F8
:102405000E096E0001D651DBEC08F0CA0E096E20EC
:102415000EDBEC08F0CB0E096E0001D751DBEC08A2
:10242500F0CC0E096E0001D851DBEC08F0CD0E0999
:102435006E200EDBEC08F0CE0E096E0001D951308E
:102445000FDBEC08F0CF0E096E0001DA51300FDB1F
:10245500EC08F00C0E5C18D8A433EF12F035EF122F
:10246500F03CEF12F0000E016E010EACEC09F0012C
:102475000E5B6E12005450110DF350600F0B6E0B76
:10248500C003F0046A820E056E74EC0AF054501114
:102495000DF350710F0B6E0BC003F0046AC20E05ED
:1024A5006E74EC0AF052505310D8A45CEF12F05E33
:1024B500EF12F065EF12F0800E096E2A0EDBEC08C4
:1024C500F078EF12F052045310D8A46CEF12F06EAE
:1024D500EF12F078EF12F0800E096E200EDBEC089B
:1024E500F0C00E096E2A0EDBEC08F0020E5C18D85F
:1024F500A47FEF12F081EF12F09CEF12F0525053CF
:1025050010D8A488EF12F08AEF12F09CEF12F08039
:102515000E096E200EDBEC08F0C00E096E2A0EDBEC
:10252500EC08F0000E536E010E526E5D4A5E2AF8FD
:10253500EF12F0020E5C18D8A4A3EF12F0A5EF126B
:10254500F0B9EF12F055BEB3EF12F0555007E102A6
:102555000E545CD8B0B1EF12F0B3EF12F0F8EF12F1
:10256500F0544A552A5D4A5E2AF8EF12F05C04D809
:10257500A4BFEF12F0C1EF12F0DDEF12F0520453D9
:1025850010D8A4C8EF12F0CAEF12F0DDEF12F080F8
:102595000E096E2A0EDBEC08F0C00E096E200EDB6C
:1025A500EC08F0000E536E000E526E5D06D8A05E6C
:1025B50006F8EF12F05C04D8A4E3EF12F0E5EF1291
:1025C500F0F8EF12F055BEF0EF12F0555008E15457
:1025D50004D8A0F0EF12F0F2EF12F0F8EF12F05479
:1025E50006D8A055065D06D8A05E060B0E5C18D869
:1025F500A4FFEF12F001EF13F00FEF13F0020E5DE1
:10260500185E10D8A409EF13F00BEF13F00FEF13BA
:10261500F0020E5B6E54EF13F00B0E5C18D8A41687
:10262500EF13F018EF13F026EF13F0030E5D185EAD
:1026350010D8A420EF13F022EF13F026EF13F005C6
:102645000E5B6E54EF13F00B0E5C18D8A42DEF1330
:10265500F02FEF13F03DEF13F0040E5D185E10D868
:10266500A437EF13F039EF13F03DEF13F0030E5BD2
:102675006E54EF13F00B0E5C18D8A444EF13F0461C
:10268500EF13F054EF13F0050E5D185E10D8A44E4D
:10269500EF13F050EF13F054EF13F0040E5B6E548C
:1026A500EF13F00C0E5C18D8A45BEF13F05DEF137D
:1026B500F063EF13F0000E016E010EACEC09F05B58
:1026C5006A12001250800B1F6E12501224266E11D2
:1026D500AE6FEF13F071EF13F072EF13F026802653
:1026E50050D8B478EF13F07AEF13F08EEF13F0268D
:1026F50028D8A480EF13F082EF13F08AEF13F000CF
:102705000E0F6E000E106E000E116E000E126E1181
:102715008E126A96EF13F0000E0F6E000E106E000B
:102725000E116E000E126E1650800B1F1A165016E3
:1027350024276E15AEA1EF13F0A3EF13F0A4EF134A
:10274500F027802750D8B4AAEF13F0ACEF13F0C0F0
:10275500EF13F02728D8A4B2EF13F0B4EF13F0BCB1
:10276500EF13F0000E136E000E146E000E156E00C2
:102775000E166E158E166AC8EF13F0000E136E0056
:102785000E146E000E156E000E166E1350141015F5
:10279500101610D8A4D1EF13F0D3EF13F0EBEF130D
:1027A500F0000E0F6E000E106E000E116E000E1270
:1027B5006E800E11127F0E12121F5012120FC00FD3
:1027C500F010C010F011C011F012C012F02BEF156F
:1027D500F02650D8A4F1EF13F0F3EF13F0FDEF134B
:1027E500F0000E0F6E000E106E000E116E000E1230
:1027F5006E2BEF15F0275026C017F0186A175E00EC
:102805000E185A7F0E1724206E000E1820216E0F09
:10281500C01BF010C01CF011C01DF012C01EF0004E
:102825000E0F6E000E106E000E116E000E126E0071
:102835000E226E000E236E000E246E000E256E27EE
:102845006A5DEF14F02750D8B42BEF14F02DEF1478
:10285500F044EF14F0D8901B361C361D361E36D8C2
:10286500900F3610361136123625AE3CEF14F03E79
:10287500EF14F03FEF14F00F80D890223623362462
:1028850036253613501B5C14501C5815501D581610
:10289500501E58D8A051EF14F053EF14F05CEF140C
:1028A500F0258C13501B5E14501C5A15501D5A16DA
:1028B500501E5A272A190E276463EF14F065EF148A
:1028C500F025EF14F01B501C101D101E10D8B46E0F
:1028D500EF14F070EF14F088EF14F0228088EF14F5
:1028E500F0D8900F3610361136123625AE7DEF141E
:1028F500F07FEF14F080EF14F00F80D8902236238C
:1029050036243625362006D8A0210611AE8DEF14C3
:10291500F08FEF14F073EF14F0276A25AE95EF14DE
:10292500F097EF14F0BBEF14F0FF0E2214176EFFB3
:102935000E2314186EFF0E2414196E7F0E25141A1B
:102945006E1750181019101A10D8B4ACEF14F0AE59
:10295500EF14F0B2EF14F0010E276EBBEF14F00F79
:10296500A0B7EF14F0B9EF14F0BBEF14F0AEEF140D
:10297500F02750D8B4C1EF14F0C3EF14F0E7EF140B
:10298500F0010E0F26000E10221122122212A0CEE7
:10299500EF14F0D0EF14F0E7EF14F00FC017F010BC
:1029A500C018F011C019F012C01AF01A341A3219F1
:1029B500321832173217C00FF018C010F019C011B5
:1029C500F01AC012F0204A212A21BEF2EF14F0219C
:1029D5005008E12028D8A0F2EF14F0F4EF14F0FF2E
:1029E500EF14F0000E216E2068000E0F6E000E1021
:1029F5006E000E116E000E126E21BE0CEF15F02149
:102A05005006E12004D8B00AEF15F00CEF15F019C7
:102A1500EF15F0000E216E000E206E000E0F6E00F9
:102A25000E106E000E116E000E126E1F6A20C0266B
:102A3500F026A020EF15F022EF15F025EF15F01187
:102A45008E26EF15F0119ED8902630126EDFEF130B
:102A5500F01200D70E036E2F0E046E820E056E74F3
:102A6500EC0AF03C503D10D8A43BEF15F03DEF15B6
:102A7500F0BEEF15F0000E3D6E010E3C6E020E35F8
:102A8500EC09F00B6E0B50466E476A0F0E46140BA1
:102A95006E000E47140C6E46C00DF047C00EF004D4
:102AA5000E0F6E0E340E320D320F2E54EF15F00A46
:102AB5000E0D02F3CF10F0F4CF11F00E02F350110A
:102AC500260B501024466E0C501120476E010E3512
:102AD500EC09F00B6E0B50446E456A0F0E44140B57
:102AE5006E000E45140C6E44C00DF045C00EF0048A
:102AF5000E0F6E0E340E320D320F2E7CEF15F00ACE
:102B05000E0D02F3CF10F0F4CF11F00E02F35011B9
:102B1500260B501024446E0C501120456E000E35C6
:102B2500EC09F00B6E0B50426E436A0F0E42140B0C
:102B35006E000E43140C6E42C00DF043C00EF0043F
:102B45000E0F6E0E340E320D320F2EA4EF15F00A55
:102B55000E0D02F3CF10F0F4CF11F00E02F3501169
:102B6500260B501024426E0C501120436E000E01AE
:102B75006E010EACEC09F038500B6E39500C6E3806
:102B85004A392A0CBED2EF15F0E80E0B5C030E0C89
:102B950058D8B0D0EF15F0D2EF15F044EF16F0C2CB
:102BA5000E096E46C001F047C002F0000E046E0A21
:102BB5000E036E86EC0CF00150300FDBEC08F0C311
:102BC5000E096E46C001F047C002F0000E046E0A01
:102BD5000E036E2FEC0CF00150300FDBEC08F0FD0E
:102BE5000E036E2F0E046EC40E056E74EC0AF0C54E
:102BF5000E096E44C001F045C002F0000E046E0AD5
:102C05000E036E86EC0CF00150300FDBEC08F0C6BD
:102C15000E096E44C001F045C002F0000E046E0AB4
:102C25000E036E2FEC0CF00150300FDBEC08F0FDBD
:102C35000E036E2F0E046EC70E056E74EC0AF0C8F7
:102C45000E096E42C001F043C002F0000E046E0A88
:102C55000E036E86EC0CF00150300FDBEC08F0C96A
:102C65000E096E42C001F043C002F0000E046E0A68
:102C75000E036E2FEC0CF00150300FDBEC08F087E3
:102C8500EF16F039BE52EF16F0D00E385C070E394C
:102C950058D8B050EF16F052EF16F083EF16F03A11
:102CA500043B10D8A459EF16F05BEF16F065EF164C
:102CB500F06C0E036E2F0E046EC20E056E74EC0AD8
:102CC500F087EF16F0020E3A183B10D8A46DEF16F8
:102CD500F06FEF16F079EF16F06C0E036E2F0E0401
:102CE5006EC50E056E74EC0AF087EF16F06C0E03D8
:102CF5006E2F0E046EC80E056E74EC0AF087EF1683
:102D0500F0000E396E000E386E5C04D8A48DEF16F7
:102D1500F08FEF16F0D8EF16F03A043B10D8A496D2
:102D2500EF16F098EF16F0AAEF16F0464A472A1864
:102D35000E46184710D8A4A2EF16F0A4EF16F0D847
:102D4500EF16F0000E476E000E466ED8EF16F00235
:102D55000E3A183B10D8A4B2EF16F0B4EF16F0C631
:102D6500EF16F0444A452A3C0E44184510D8A4BE37
:102D7500EF16F0C0EF16F0D8EF16F0000E456E0016
:102D85000E446ED8EF16F0424A432A3C0E421843D1
:102D950010D8A4D0EF16F0D2EF16F0D8EF16F00049
:102DA5000E436E000E426ED8EF16F0020E5C18D878
:102DB500A4DFEF16F0E1EF16F0F1EF16F03A4A3B1B
:102DC5002A030E3A183B10D8A4EBEF16F0EDEF16D8
:102DD500F0F1EF16F0000E3B6E000E3A6E0B0E5C36
:102DE50018D8A4F8EF16F0FAEF16F094EF17F000E4
:102DF5000E016E010EACEC09F0E00E036E2F0E0411
:102E05006E800E056E74EC0AF0C10E036E2F0E0473
:102E15006EC30E056E74EC0AF0200E126EA10E1331
:102E25006E070E146E000E156E1206000E135A1460
:102E35005A155A12280AE1132808E1142806E11543
:102E450028D8A428EF17F02AEF17F017EF17F04648
:102E5500C001F047C002F0000E046E0A0E036E2F8B
:102E6500EC0CF001C00BF002C00CF046C001F047BD
:102E7500C002F0000E046E0A0E036E86EC0CF00123
:102E850038F00B0B10096E020E01EC09F044C0017D
:102E9500F045C002F0000E046E0A0E036E2FEC0C16
:102EA500F001C00BF002C00CF044C001F045C002B7
:102EB500F0000E046E0A0E036E86EC0CF00138F07D
:102EC5000B0B10096E010E01EC09F042C001F04335
:102ED500C002F0000E046E0A0E036E2FEC0CF0011A
:102EE500C00BF002C00CF042C001F043C002F0007C
:102EF5000E046E0A0E036E86EC0CF00138F00B0B17
:102F050010096E000E01EC09F0000E016E010EAC09
:102F1500EC09F0010E5B6E000E3D6E000E3C6EA3DB
:102F2500EF17F00C0E5C18D8A49BEF17F09DEF1768
:102F3500F0A3EF17F0010E5B6E000E3D6E000E3C28
:102F45006E12000054494D45202020202020475274
:102F550020202053500A0D00202020202020202052
:102F650020202020202020202000202053554343CE
:102F750045535346554C4C202020004E4F204C6F56
:102F85006720417661696C61626C6500646F776E7C
:102F95006C6F6164656420202020200053554343F5
:102FA50045535346554C4C20202020002020636C6F
:102FB5006561725F6C6F6720202020005375636325
:102FC50065737366756C6C790054494D45202020F6
:102FD500200048483A4D4D3A5353007365742074A8
:102FE500696D6500535020200054494D45004556F4
:0B2FF50020005350004556003A000039
:020000040020DA
:08000000FFFFFFFFFFFFFFFF00
:020000040030CA
:0E000000FF071F1FFF8285FF0FC00FE00F409C
:00000001FF
